:020000040800F2
:1000000070070020B5010008151800080D18000839
:1000100011180008710200084118000800000000D3
:100020000000000000000000000000001D18000893
:1000300075020008000000001918000821180008C7
:10004000CF010008CF010008CF010008CF01000850
:10005000CF010008CF010008CF010008CF01000840
:10006000CF010008CF010008CF010008CF01000830
:10007000CF010008CF010008CF010008CF01000820
:10008000CF010008CF010008CF010008CF01000810
:10009000CF010008CF010008CF010008CF01000800
:1000A000CF010008CF010008CF010008CF010008F0
:1000B000291800083518000800000000CF010008CA
:1000C000CF0100080000000000000000CF01000880
:1000D00000000000CF010008CF0100080000000070
:1000E000CF010008CF010008CF01000800F002F89E
:1000F00000F050F814A696E8000CB244B344DA4578
:1001000001D100F047F8BAE80F000FA696E83000DA
:10011000A5EB040504EB0607AAEB0704A7F101070A
:100120004FEA15154FEA3414A4F10104AC4201D38F
:1001300000F030F813F0010F18BFFB1A43F0010371
:1001400000F001F8DBE71847EC2400000C25000064
:10015000103A24BF78C878C1FAD8520724BF30C8F3
:1001600030C144BF04680C60704700007047000055
:100170000023002400250026103A28BF78C1FBD8B0
:10018000520728BF30C148BF0B6070471FB51FBD65
:1001900010B510BD00F031F81146FFF7F7FF01F080
:1001A0005FFE00F04FF803B4FFF7F2FF03BC00F06E
:1001B00057F800000948804709480047FEE7FEE776
:1001C000FEE7FEE7FEE7FEE7FEE7FEE7FEE7FEE707
:1001D00004480549054A064B7047000025180008E9
:1001E000ED0000087001002070070020700300205F
:1001F00070030020704770477047754600F02CF878
:10020000AE4605006946534620F00700854618B003
:1002100020B5FFF7DDFFBDE820404FF000064FF0AE
:1002200000074FF000084FF0000BAC46ACE8C009E7
:10023000ACE8C009ACE8C009ACE8C00921F007018E
:100240008D46704710B50446AFF300802046BDE8E8
:100250001040FFF7A8BF00000048704710000020C2
:1002600001491820ABBEFEE72600020070470000DF
:10027000FEE7000070470000B0B5044600F01CF92E
:10028000054640F20000C2F200000078611C18BF71
:10029000044400BF00F010F9401BA042FAD3B0BDE7
:1002A0002DE9F04F82B00E68002E00F0F58041F28B
:1002B0000002C4F20102032340F2004E904208BF44
:1002C00002234FF6FF7CC4F2010E009300240123A9
:1002D000C1F2100C4FF0000B4FF000094BE000BFD3
:1002E00040F60042C4F20102009F904208BF01277D
:1002F00004F00C030F229A402AEA020207FA03F3E1
:100300004FEA9B051A4346F825204E6840F20C45FB
:10031000F202DEF8082054BF22EA080242EA08028C
:10032000C4F20105CEF808202A68B30254BF22EABD
:10033000080242EA08022A60B303DEF8042054BF30
:1003400022EA080242EA0802F303CEF80420DEF8AB
:1003500000204FF0010354BF22EA080242EA0802DB
:10036000CEF800200E680BF1010B36FA0BF204F107
:10037000040400F0918003FA0BFA16EA0A08F1D09F
:100380004E68664512DC122E56D8DFE806F0350BB3
:100390004549555555555555555555555555554D31
:1003A000510000BFD1F80C9046E000BF4FF6FF723D
:1003B000C1F2210296420FDC0022C1F211029642E4
:1003C0001AD00022C1F21202964215D00022C1F2C8
:1003D0002102964210D02FE00022C1F22202964262
:1003E0000AD00022C1F23102964205D00022C1F2A9
:1003F0003202964220D100BF8A684AB1012A14BF56
:10040000C0F814A0C0F810A04FF0080914E000BF15
:100410004FF0040910E000BFCA6802F108090BE0C0
:100420004FF0000908E000BFCA6802F1040903E0C8
:10043000CA6802F10C0900BF22460646B8F5807F63
:1004400024BF203A043637680F25954027EA050572
:1004500009FA02F22A433260CA79D2067FF582AFE6
:1004600041F21803C4F202031A68AEF57E7642F038
:1004700001021A601A6802F001020192019A2BF03F
:10048000030256F802A040F60002C4F201029042B4
:100490007FF426AF00272BE702B0BDE8F08F000005
:1004A0008068084018BF012070470000002A08BF7C
:1004B000090401617047000040F26C10C2F20000B4
:1004C0000068704740F2000040F26C11C2F2000078
:1004D000C2F2000100780A6810440860704700000A
:1004E00080B542F20000C4F20200016841F0100140
:1004F0000160032000F08CF80F2000F005F800F0F8
:1005000027F8002080BD000070B540F20006C2F25E
:10051000000640F208013278C2F200014FF47A730B
:100520000968B3FBF2F20446B1FBF2F1084600F0B1
:1005300061FB0F2C4FF0010508D838B94FF0FF30A0
:1005400021460022002500F037F87460284670BD6F
:1005500082B041F21800C4F202000168042241F0A6
:1005600001010160016801F00101019101994168F7
:1005700041F080514160406800F080500090009848
:100580000420C4F20100016862F31A61016002B044
:1005900070470000002848BF704700F01F0101228B
:1005A00002FA01F11C2202EAD0004EF20012CEF251
:1005B000000281507047000010B54EF60C5CCEF280
:1005C000000CDCF80030C3F3022E8EF00704042C7C
:1005D00028BF0424BEF103034FF0FF3E0EFA04F4DB
:1005E00038BF0023A14399400EFA03F39A43114305
:1005F00000F00F0200F160430901043A03F564437F
:100600006244002848BF02F10C03197010BD0000BD
:100610004EF60C51CEF200010A684FF6FF031A4065
:1006200060F30A2242F0806040F0FD70086070477D
:10063000002804BF012070472DE9F04381B042F249
:100640000008C4F202080446D8F800000D4600F085
:10065000070088420CD2D8F8000020F00700284399
:10066000C8F80000D8F8000000F00700A8426CD1DC
:10067000206841F204098107C4F2020917D5410735
:1006800005D5D9F8001041F4E061C9F80010010760
:1006900005D5D9F8001041F46051C9F80010D9F817
:1006A0000010A26821F0F0011143C9F80010C00742
:1006B00042D1D8F8000000F00700A8420CD9D8F8C1
:1006C000000020F007002843C8F80000D8F8000018
:1006D00000F00700A84238D12068410707D5D9F8B3
:1006E0000010E26821F4E0611143C9F8001000072E
:1006F00008D5D9F80000216920F4605040EAC10013
:10070000C9F80000D9F8002002F00C00082841F2D6
:100710000020C0F27A0051D142F22463C2F3834137
:10072000C0F60003595CD2033CD440F60010C0F27E
:100730003D00484342E000BF606802280AD001281B
:100740002AD159F8041C890308D4012001B0BDE85E
:10075000F08300BF59F8041C8901F6D5D9F80010C0
:1007600021F003010843C9F80000FFF7A5FE064683
:1007700041F28837D9F80000616800F00C00B0EB56
:10078000810F96D0FFF798FE801BB842F2D9032064
:1007900001B0BDE8F08300BF59F8041C8907D4D527
:1007A000DCE700BFD9F8002042F22263C2F34042E6
:1007B000C0F600039A5C4843B0FBF2F0D9F8001091
:1007C00042F21262C1F30311C0F60002515C40F222
:1007D000080220FA01F140F20400C2F200000068B1
:1007E000C2F200021160FFF78FFE002001B0BDE8E9
:1007F000F0830000002804BF012070472DE9F0417C
:1008000082B00446007841F20006C007C4F2020636
:100810000CD0706800F00C00042840F08180306833
:10082000800303D56068002800F04E81207880079F
:100830001BD5706810F00C0F09D0706800F00C0028
:10084000082840F08B807068C00300F18780306812
:10085000800703D52069012840F03681306861693E
:1008600020F0F80040EAC10030602078000713D47F
:10087000207840072CD4E569002D00F020817068B5
:1008800000F00C00082840F0AF80012D40F00C81F2
:10089000012002B0BDE8F081A069002800F08C8042
:1008A0000020C4F242200121C0F88014FFF704FEAA
:1008B000054600BF706A800700F1BA80FFF7FCFDB3
:1008C000401B0228F6D9032002B0BDE8F08100BF2A
:1008D000F0695FEAC00808D4F06940F08050F06128
:1008E000F06900F080500090009847F20007C4F2D1
:1008F00000073868C0054DD4386840F4807038600F
:10090000FFF7DAFD054600BF3868C00542D4FFF79F
:10091000D3FD401B6428F7D9032002B0BDE8F08165
:10092000706800F00C00082803D17068C0033FF520
:1009300076AF6068002800F00981B0F5A02F00F0C4
:100940001D81B0F5803F00F01D81306820F48030BB
:100950003060306820F4802017E100BF2069002853
:1009600040F20000C4F2422000F08C8001210160BE
:10097000FFF7A2FD054600BF306880073FF56EAF68
:10098000FFF79AFD401B0228F6D9032002B0BDE80C
:10099000F08100BFE068002800F09A80052800F090
:1009A000B180012800F0B280306A20F0010030628E
:1009B000306A20F00400ACE00020C4F242200021A4
:1009C000C0F88014FFF778FD054600BF706A800705
:1009D0007FF54EAFFFF770FD401B0228F6D90320CC
:1009E00002B0BDE8F08100BF0027C4F2422700201A
:1009F0003866FFF761FD022D05460DD13068800194
:100A000040F1D680FFF758FD401B02284FF003004D
:100A1000F4D902B0BDE8F081306880014FD5FFF70E
:100A20004BFD401B02284FF00300F5D9F1E700BF52
:100A300040F20800C2F20000006844F6D351C1F24F
:100A40006201A0FB0101480A019000BF00BF0198AC
:100A5000411E002801913FF40BAF00BF0198411ED9
:100A6000002801913FF404AF00BF0198411E002807
:100A700001913FF4FDAE00BF0198411E0028019195
:100A8000E4D1F5E600210160FFF716FD054600BF41
:100A9000306880077FF5E9AEFFF70EFD401B0228A6
:100AA0004FF00300F4D9B4E77068216A00F4803293
:100AB0008A4209D1616A00F47010884204D1002092
:100AC00002B0BDE8F08100BF012002B0BDE8F081B6
:100AD000306A20F001003062306A20F00400306299
:100AE000FFF7EAFC054641F2883700BF306A80070D
:100AF00022D5FFF7E1FC401BB8424FF00300F5D9C7
:100B000087E700BF306A40F004003062306A40F08E
:100B100001003062FFF7D0FC054641F2883700BF84
:100B2000306A800708D4FFF7C7FC401BB842F7D9EA
:100B3000032002B0BDE8F081B8F1000F3FF59BAE95
:100B4000F06920F08050F06195E600BF306820F435
:100B500080303060306820F480203060FFF7ACFCDB
:100B6000054600BF306880037FF560AEFFF7A4FC48
:100B7000401B64284FF00300F4D94AE7306840F482
:100B800080203060306840F480303060FFF794FCA3
:100B9000054600BF306880033FF548AEFFF78CFC88
:100BA000401B6428F6D9032002B0BDE8F08100BFE5
:100BB000206AB0F5803F05D17168A26821F4003148
:100BC000114371607168626A21F474111143084322
:100BD000706001203866FFF76FFC044630688001C2
:100BE0003FF56DAFFFF768FC001B02284FF00300D4
:100BF000F4D90EE7411E0020B0EB116F1CBF01209D
:100C000070474EF21002CEF2000251604EF62351B0
:100C1000CEF20001F0230B70072190601160704745
:100C2000704700007047000090F83C20012A04BF84
:100C300002207047B0B501F108053CCDD1E900CEE6
:100C400023F47C5322F470521A432EF4F0431A43D7
:100C50002CF4E0431A4324F4C0431A432A43C969DD
:100C600022F48042036811435964002180F83C104B
:100C7000BDE8B0400846704790F83C20012A4FF08C
:100C8000020228D010B580F83D200268D2F804E0B6
:100C9000D2F808C00C682EF070032343B2F1804FE5
:100CA00053600BD042F60043C4F201039A4205D0D0
:100CB00040F20043C4F200039A4204D149682CF088
:100CC0008003194391600121002280F83D1080F8D3
:100CD0003C20BDE81040104670470000002804BFCB
:100CE0000120704710B5044690F83D0028B9002057
:100CF00084F83C00204600F051F8022084F83D00C2
:100D0000206842F6004C0268B0F1804FC4F2010C3A
:100D100018BF604504D1A36822F070021A4305E0B1
:100D200040F20043C4F200039842F4D0B0F1804F87
:100D300018BF604504D1236922F440721A4305E0CC
:100D400040F20043C4F200039842F4D0A16922F0BB
:100D50008002D4F804E0E368114360450160C36297
:100D6000C0F828E002D16169CCF83010012141615E
:100D7000002084F8461084F83E1084F83F1084F870
:100D8000401084F8411084F8421084F8431084F82D
:100D9000441084F8451084F83D1010BD70B586B03D
:100DA00000680026B0F1804F059615D042F600414C
:100DB000C4F20101884257D141F21800C4F2020086
:100DC000016841F400610160006800F40060019076
:100DD000019806B070BD00BF41F21800C4F20200D5
:100DE000416840F6000441F0010141604168C4F2ED
:100DF000010401F0010101910199016802AD41F086
:100E000008010160016801F0080101910199016880
:100E100041F0040101600068294600F004000190DF
:100E200001984FF48160CDE9020604F580600496D4
:100E3000FFF736FA4FF40040CDE902062046294676
:100E40000496FFF72DFA0420C4F201000168002285
:100E500041F0E06141F4407101601C200021FFF786
:100E6000ABFB1C20FFF796FB06B070BD90F83D1061
:100E700001291CBF01207047022180F83D10006845
:100E8000C168B0F1804F41F00101C1600BD042F662
:100E90000041C4F20101884205D040F20041C4F291
:100EA0000001884206D1816801F00701062904BFCC
:100EB00000207047016841F0010101600020704787
:100EC00090F83C20012A4FF0020200F0C58080B566
:100ED00080F83D20D0F800C04FF67772DCF808307B
:100EE00023EA0202CCF808200B684F2B28DC1F2BCA
:100EF00044DD202B45D0302B43D0402B40F0AE803A
:100F0000D1F804E0C968DCF82030DCF8202022F0B9
:100F10000102CCF82020DCF8182022F0F00242EA8E
:100F2000011123F00A0242EA0E02CCF81810CCF8A4
:100F30002020DCF8081041F0470121F0300180E06A
:100F40006F2B27DDB3F5005F48D0B3F5805F7AD013
:100F5000702B40F08380D1E901E3C968DCF80820F8
:100F600043EA0E0322F47F4243EA01211143CCF805
:100F70000810DCF8081041F0770162E00BB1102B8B
:100F80006CD1DCF8081021F07001194341F0070121
:100F900057E000BF502B35D0602B5FD1D1F804E073
:100FA000C968DCF82030DCF8202022F01002CCF8F0
:100FB0002020DCF8182022F4704242EA013123F0AC
:100FC000A00242EA0E12CCF81810CCF82020DCF86F
:100FD000081041F0670121F0100132E0D1E901E38E
:100FE000C968DCF8082043EA0E0322F47F4243EA92
:100FF00001211143CCF80810DCF8081041F48041BD
:101000001FE000BFD1F804E0C968DCF82030DCF84C
:10101000202022F00102CCF82020DCF8182022F059
:10102000F00242EA011123F00A0242EA0E02CCF871
:101030001810CCF82020DCF8081041F0570121F0FE
:101040002001CCF808100022012180F83D10002179
:1010500080F83C10BDE88040104670470122F3E75D
:101060007047000090F83C30012B04BF022070470D
:101070004FEAB202032A00F28780F0B5DFE802F0FF
:10108000022242600368D1E900C5D1F80CE01C6A75
:101090001A6AB3F1804F22F001021A621A4652F81E
:1010A000186F0BD042F60047C4F20107BB4205D0CF
:1010B00040F20047C4F20007BB426BD126F00306A2
:1010C000354369E00368D1E900E6D1E902C11C6A51
:1010D0001A6A360222F010021A621A4652F8185F93
:1010E0004FF2FF07BE4325F4734561F30F3624F03A
:1010F000A0040EF00A0746EA050144EA071711604A
:101100001F623AE00768D1E900C5D1E902313C6AC3
:101110003A6A61F3071522F480723A623A4652F84D
:101120001C6F26F0F30645EA06014FEA5C0666F3FB
:10113000492411603C62116821F00C01116039E012
:101140000368D1E900E6D1E902C11C6A1A6A3602D5
:1011500022F480521A621A4652F81C5F4FF2FF07BF
:10116000BE4325F4734561F30F364FEA5E0746EA46
:10117000050167F34D3411601C6211684FEA0C23BE
:1011800021F44061116015E00121002280F83C202B
:101190000846704746F0010524F00A070CF00A06DD
:1011A0006EF3071537449D611F629F6927F00C0796
:1011B0009F618B681168194311600021BDE8F04000
:1011C000002280F83C20084670470000002804BF39
:1011D0000120704710B5044690F83D0028B9002062
:1011E00084F83C00204600F051F8022084F83D00CD
:1011F000206842F6004C0268B0F1804FC4F2010C46
:1012000018BF604504D1A36822F070021A4305E0BC
:1012100040F20043C4F200039842F4D0B0F1804F92
:1012200018BF604504D1236922F440721A4305E0D7
:1012300040F20043C4F200039842F4D0A16922F0C6
:101240008002D4F804E0E368114360450160C362A2
:10125000C0F828E002D16169CCF830100121416169
:10126000002084F8461084F83E1084F83F1084F87B
:10127000401084F8411084F8421084F8431084F838
:10128000441084F8451084F83D1010BD80B586B038
:10129000006840F20042C4F2000200219042059131
:1012A00002D006B080BD00BF41F21800C4F20200B7
:1012B000426842F002024260426802F00202019279
:1012C000019A026842F008020260006800F008001B
:1012D000019001981020CDE9020140F600400491F0
:1012E000C4F2010002A9FEF7DBFF0420C4F20100F2
:1012F00001684FF2FF32CFF6FF02114041F0E0618A
:1013000041F4006101601D2000210022FFF754F923
:101310001D20FFF73FF906B080BD000010B5016841
:1013200004460869800744BFC8685FEA807039D402
:101330000869400744BFC8685FEA40703ED4086946
:10134000000744BFC8685FEA007045D40869C0065A
:1013500044BFC8685FEAC0604AD40869C0071CBFC0
:10136000C8685FEAC07051D10869000644BFC86808
:101370005FEA006052D40869400644BFC8685FEA6B
:10138000406053D40869800646BFC8685FEA806041
:1013900010BD6FF0200220460A61BDE81040FFF743
:1013A00041BC00BF6FF0020008610120207788690E
:1013B000800743D02046FFF753FE45E06FF004005E
:1013C000086102202077886910F4407F40D02046D1
:1013D000FFF746FE42E000BF6FF0080008610420FE
:1013E0002077C86980073DD02046FFF739FE3FE0EF
:1013F0006FF01000086108202077C86910F4407F62
:101400003AD02046FFF72CFE3CE000BF6FF0010011
:101410000861204600F0C8F92168A5E76FF0800058
:1014200008612046FFF7FCFB2168A4E76FF040004D
:101430000861204600F0E8F92168A3E7204600F0A3
:101440004DF8204600F0AEF92168002020776FE7C4
:10145000204600F043F8204600F0A4F9216800205F
:1014600020776CE7204600F039F8204600F09AF922
:1014700021680020207769E7204600F02FF82046F9
:1014800000F090F921680020207766E780B586B0EB
:10149000014640F60000C4F20100096800F510534F
:1014A00000229942049201D006B080BD41F2180199
:1014B000C4F202010A6842F004020A60096801F0FD
:1014C0000401019101994FF480710291022103916D
:1014D000059102A9FEF7E4FE06B080BD704700004A
:1014E00090F83C30012B04BF022070474FEAB20253
:1014F000032A3DD82DE9F043DFE802F002407CB634
:10150000036842F600461D6A1A6AC4F2010622F018
:1015100001021A621A465C6852F818CFB3428E680C
:10152000D1F800E025F0020545EA06050CD1CE68A9
:10153000D1E9057824F4407425F00C0526F0040662
:101540003C43354344EA08042CF0730747EA0E078E
:101550005C609F614F6809695F631D629F6947F026
:1015600008079F619F6927F004079F61ACE000BFF7
:101570000121002280F83C2008467047036842F6AB
:1015800000461D6A1A6AC4F2010622F010021A62AD
:101590001A46D3F804C052F8184FB3428E68D1F8F7
:1015A00000E025F0200545EA06150FD1CE68D1E907
:1015B00005986FF0400725F0C00507EA0616354389
:1015C0002CF4406748EA090647EA860C24F4E6440E
:1015D00044EA0E27C3F804C09F614F6809699F63FE
:1015E0001D629F6947F400679F619F6927F48067C8
:1015F0009F6168E0036842F600461D6A1A6AC4F2F9
:10160000010622F480721A621A46D3F804C052F816
:101610001CEFB3428E680C6825F4007545EA062578
:101620000FD1CE68D1E90598360240F2FF4725F484
:101630004065BE4335432CF4405748EA090647EA63
:10164000061C2EF073072743C3F804C0DF614F6800
:101650000969DF631D62DF6947F00807DF61DF6941
:1016600027F00407DF612FE0036842F60047D3F854
:1016700020C01A6AC4F2010722F480521A621A4684
:101680005C6852F81C5FD1F800E08E68BB4204D160
:101690004F6924F4804444EA87142CF4005747EA45
:1016A000063725F4E64646EA0E265C60DE614E68A3
:1016B00009691E641F62DF6947F40067DF61DF6943
:1016C00027F48067DF610902136819431160002164
:1016D000BDE8F043002280F83C2008467047000037
:1016E000002804BF0120704710B5044690F83D0063
:1016F00028B9002084F83C00204600F051F8022070
:1017000084F83D00206842F6004C0268B0F1804F3A
:10171000C4F2010C18BF604504D1A36822F0700226
:101720001A4305E040F20043C4F200039842F4D0AB
:10173000B0F1804F18BF604504D1236922F4407294
:101740001A4305E040F20043C4F200039842F4D08B
:10175000A16922F08002D4F804E0E36811436045F7
:101760000160C362C0F828E002D16169CCF8301092
:1017700001214161002084F8461084F83E1084F86D
:101780003F1084F8401084F8411084F8421084F827
:10179000431084F8441084F8451084F83D1010BDBF
:1017A0007047000070470000B0B50168B1F1804F8C
:1017B00003D10446FEF786FE216840F20040C4F2E1
:1017C0000000814218BFB0BD40F27005C2F20005B2
:1017D00095E80E0000240A294FF00001B8BF01214E
:1017E000062A4FF00002B8BF01221143062BB8BFF2
:1017F00001240C4300F582304FF400512246FEF7DD
:1018000055FEEC60B0BD000070470000FEE7000030
:10181000FEE70000FEE70000704700007047000090
:10182000FEF750BE7047000040F29400C2F2000084
:10183000FFF774BD40F22410C2F20000FFF76EBD46
:10184000FEE70000F0B540F61401C4F201010420E7
:1018500008604FF0020C08224FF0100E20204023A9
:10186000C1F800C00A60C1F800E008600B6051F8E0
:10187000084C4FF4001544F0020441F8084C4FF4B2
:10188000002441F8044C4FF480144FF4800641F8D2
:10189000044C41F8045C41F8046CC1F800C00A60D3
:1018A000C1F800E008600B6051F8087C47F00207BF
:1018B00041F8087C41F8042C41F8044C41F8045CE0
:1018C00041F8046CC1F800C00A60C1F800E008608B
:1018D00002200B60BDE8F040FEF7CEBC012805D029
:1018E000022818BF7047BF2001E000BF7F2070B5FD
:1018F000014440F61400C4F20100042202604FF0DB
:10190000020C4FF0080E102220234024C0F800C023
:10191000C0F800E002600360046050F8085C4EB25A
:1019200045F0020540F8085CCD064FF0080558BFA9
:101930004FF4002540F8045C8D064FF0100558BFA9
:101940004FF4801540F8045C4D064FF0200558BF59
:101950004FF4001540F8045C4025B6F1FF3FC8BFC6
:101960004FF4800540F8045CC0F800C0C0F800E007
:1019700002600360046050F8085C45F0020540F81E
:10198000085CCD074FF0080508BF4FF4002540F86C
:10199000045C8D074FF0100558BF4FF4801540F8D8
:1019A000045C4D074FF0200558BF4FF400150907A0
:1019B0004FF0400140F8045C58BF4FF4800140F8FC
:1019C000041CC0F800C0C0F800E0026003600460BE
:1019D000BDE87040704700002DE9F04F81B08246AD
:1019E000FA2000928946FEF747FC40F61407C4F23D
:1019F000010704204FF0020B082510244FF02008A7
:101A000040263860C7F800B03D603C60C7F80080F1
:101A10003E6057F8080C4FF4002340F0020047F8EE
:101A2000080C4FF4002047F8040C4FF4801047F8DE
:101A3000040C4FF4001047F8040C4FF4800047F8F2
:101A4000040CC7F800B03D603C60C7F800803E6001
:101A500057F8080C4FF4001240F002004FF48001D8
:101A600047F8080C322047F8043C47F8044C47F884
:101A7000042C47F8041CC7F800B03D603C60C7F870
:101A800000803E60FEF7F8FB00994AEA090008432F
:101A900004213960C7F800B03D603C60C7F80080A1
:101AA0003E6057F8081C40F0200041F0020147F862
:101AB000081CC1064FF0080158BF4FF4002147F839
:101AC000041C41064FF0200147F8044C58BF4FF466
:101AD000001142B247F8041C4021B2F1FF3FC8BFD9
:101AE0004FF4800147F8041CC7F800B03D603C602B
:101AF000C7F800803E6057F8081C41F0020147F823
:101B0000081CC1074FF0080108BF4FF4002147F837
:101B1000041C81074FF0100158BF4FF4801147F8A3
:101B2000041C41074FF0200158BF4FF4001100077B
:101B30004FF0400047F8041C58BF4FF4800047F8AE
:101B4000040C3220C7F800B03D603C60C7F800804C
:101B50003E60FEF791FB04203860C7F800B03D609E
:101B60003C60C7F800803E6057F8080C4FF4002234
:101B700040F0020047F8080C4FF480104FF4001AB0
:101B80004FF4800147F8042C47F8040C47F804ACE4
:101B900047F8041CC7F800B03D603C60C7F80080FF
:101BA0003E6057F8080C4FF4002940F0020047F857
:101BB000080C322047F8042C47F8044C47F8048CF2
:101BC00047F8041CC7F800B03D603C60C7F80080CF
:101BD0003E60FEF751FB04203860C7F800B03D605E
:101BE0003C60C7F800803E6057F8080C40F00200E7
:101BF00047F8080C4FF4801047F8049C47F8040C91
:101C00004FF4800047F804AC47F8040CC7F800B064
:101C10003D603C60C7F800803E6057F8080C4FF408
:101C2000001A40F0020047F8080C322047F8049CE4
:101C300047F8044C47F8048C47F8046CC7F800B028
:101C40003D603C60C7F800803E60FEF715FB042055
:101C50003860C7F800B03D603C60C7F800803E6067
:101C600057F8080C4FF4002240F0020047F8080C27
:101C70004FF480114FF4800047F8042C47F8041CFF
:101C800047F804AC47F8040CC7F800B03D603C606E
:101C9000C7F800803E6057F8080C4FF4002A40F067
:101CA000020047F8080C322047F8042C47F8041CBF
:101CB0004FF4801947F8048C47F8046CC7F800B05B
:101CC0003D603C60C7F800803E60FEF7D5FA042016
:101CD0003860C7F800B03D603C60C7F800803E60E7
:101CE00057F8080C4FF4001140F002004FF4800246
:101CF00047F8080C47F804AC47F8049C47F8041C64
:101D000047F8042CC7F800B03D603C60C7F800807D
:101D10003E6057F8080C40F0020047F8080C47F8FE
:101D2000045C47F8049C47F8041C47F8042CC7F8E7
:101D300000B03D603C60C7F8008064203E6001B0A8
:101D4000BDE8F04FFEF798BA0278002A08BF704746
:101D500070B540F61401C4F2010101384FF0020CD5
:101D60004FF0080E10232024402500BF51F8086CC6
:101D700046F0040641F8086CC1F800C0C1F800E064
:101D80000B600C600D6051F8086C46F0020641F8DB
:101D9000086CD6064FF0080658BF4FF4002641F8ED
:101DA000046C96064FF0100658BF4FF4801641F8A9
:101DB000046C56064FF0200658BF4FF4001641F849
:101DC000046C56B2B6F1FF3F4FF04006C8BF4FF467
:101DD000800641F8046CC1F800C0C1F800E00B6057
:101DE0000C600D6051F8086C46F0020641F8086C72
:101DF000D6074FF0080608BF4FF4002641F8046CE0
:101E000096074FF0100658BF4FF4801641F8046C47
:101E100056074FF0200658BF4FF4001612074FF038
:101E2000400241F8046C58BF4FF4800241F8042C82
:101E3000C1F800C0C1F800E00B600C600D60827852
:101E40000130002A92D1BDE87040704710B51446A9
:101E5000FFF744FD2046BDE81040FFF775BF0000C6
:101E60009CB0FEF73DFB00240120CDE90944CDE9FB
:101E700007440890102009904FF4002002250D908F
:101E800004A8CDE905440495CDE90B54FEF7B2FC56
:101E900020B1EFF3108072B6FEE700BF0F20CDE94E
:101EA0000E050EA80021CDE910441294FEF7C0FBE8
:101EB00020B1EFF3108072B6FEE700BF41F21800C8
:101EC000C4F20200016840F6000441F02001016004
:101ED0000168C4F2010401F0200104910499016831
:101EE000002241F004010160016843F67E4601F0E2
:101EF0000401049104990168002541F00801016082
:101F0000006843F67E4100F00800049004982046E3
:101F1000FEF7CCFA0120CDE905050220079004A9BF
:101F200020460496FEF7BCF940F2DC0004F510519F
:101F3000C2F200004FF6FF721B95CDE91955CDE9AD
:101F40001655CDE90A55CDE90855CDE90655CDE937
:101F50000455C0E90015C0E90252C0E90455856185
:101F6000FEF7BCFE20B1EFF3108072B6FEE700BFB3
:101F70004FF48050189040F2DC00C2F2000018A923
:101F8000FEF79EFF20B1EFF3108072B6FEE700BFB0
:101F900040F2DC00C2F20000FFF7A2FB20B1EFF339
:101FA000108072B6FEE700BF40F2DC00C2F2000013
:101FB00016A9FEF761FE28B1EFF3108072B600BFDC
:101FC000FEE700BF60200E9040F2DC000025C2F268
:101FD00000000EA90022CDE90F55CDE91155CDE93C
:101FE0001355FFF77DFA28B1EFF3108072B600BFEA
:101FF000FEE700BF4FF40050099040F2DC00C2F24F
:10200000000004A90895CDE90655CDE904550B95C6
:10201000FEF70AFE20B1EFF3108072B6FEE700BFB4
:1020200040F2DC00C2F20000FFF730FA40F2700527
:10203000C2F200054FF080422846002140F8242FCC
:102040004FF6FF720791CDE90511CDE91811C0E9EE
:102050000111C0E903218161FEF740FE20B1EFF3D9
:10206000108072B6FEE700BF4FF480502435049014
:1020700004A92846FEF724FF20B1EFF3108072B6C2
:10208000FEE700BF2846FFF7A1F818B1EFF3108074
:1020900072B6FEE718A92846FEF7EEFD20B1EFF371
:1020A000108072B6FEE700BF002001210E90CDE93E
:1020B0000F1011900EA928460022FEF7D3FF18B189
:1020C000EFF3108072B6FEE70EA928460422FEF751
:1020D000C9FF18B1EFF3108072B6FEE70EA92846CB
:1020E0000822FEF7BFFF18B1EFF3108072B6FEE7CB
:1020F00040F224100021A4F58232C2F2000040F226
:10210000F31341F28737CDE90E11C0E90023C0E98E
:10211000021701618161FFF759F818B1EFF31080E0
:1021200072B6FEE740F22410C2F200000EA9FEF7DC
:10213000A3FD18B1EFF3108072B6FEE70020012175
:102140000490CDE90510079040F22410C2F200007F
:1021500004A90022FEF786FF20B1EFF3108072B6CB
:10216000FEE700BF002000210822FFF735FC2846CB
:10217000FEF77CFE40F22410C2F20000FEF776FE6D
:1021800040F27000C2F2000004F58065103001904A
:1021900016E000BFFFF756FB6120B8834FF02030F8
:1021A000386145F22000C6F27250786147F2702023
:1021B000C6F66530B861019A00200021FFF746FE9F
:1021C0000A20FEF759F820464FF480610122FEF7FD
:1021D0006DF90A20FEF750F820464FF48061002286
:1021E000FEF764F920464FF40041FEF759F9002844
:1021F000F8D0FEF761F9074620464FF40041FEF79C
:102200004FF90028F8D1FEF757F906460A20FEF7E5
:1022100033F820464FF400610122FEF747F90A2007
:10222000FEF72AF820464FF400610022FEF73EF93F
:1022300028460821FEF734F90028F9D0384600F086
:1022400015F90390FEF738F9074628460821FEF7EE
:1022500027F90028F9D1304600F008F90290FEF77E
:102260002BF983460A20FEF707F820464FF48051E9
:102270000122FEF71BF90A20FDF7FEFF20464FF46E
:1022800080510022FEF712F928464FF48061FEF7D4
:1022900007F90028F8D0384600F0E8F88046FEF745
:1022A0000BF9064628464FF48061FEF7F9F800283E
:1022B000F8D1584600F0DAF88246304600F0D6F8F9
:1022C0008346FEF7F9F800F0D1F88146DDE9020116
:1022D00000F02AF900F0AEF840F27007C2F20007F1
:1022E000064638605046414600F01EF900F0A2F85C
:1022F0008046B8604846594600F016F900F09AF852
:10230000092E78607FF746AF052803DCFFF79AFABD
:1023100005E000BFFFF796FAB8F1050F14DC40F2B4
:102320007000C2F20000612181834FF02031016111
:1023300045F22001C6F27251416147F27021C6F6A2
:102340006531816137E700BF40F2700047F27341A9
:10235000C2F20000C0F26F0144F22032C0F8171040
:102360004FF02031C7F26932C0E9041223E70000C0
:1023700090EA010F48BF81F0004100F1DC80421A71
:102380003CBF801A89184FEAD052A2EBD1534FF0CC
:102390007F4C1CEA410F18BF9CEA026F00F03B80A3
:1023A0004FF0004C4CEA00204CEA012121FA03FCDA
:1023B00010EB0C0C1ED202F1FF325FEA1C2040EB46
:1023C000C25038BF70471CF07F0F4FEA400C18BF57
:1023D000BCF17F4F38BF7047C3F12003994008BF5D
:1023E00020F00100BCF17F4F38BF7047A0F1C04022
:1023F00000F095B84FEA3C00000A40EBC25028BFFD
:102400001CF0FF0F4FEA400CE6D018BFBCF17F4F25
:1024100038BF7047EAE79CEA026F05D010EA5C0F0C
:1024200008BF00F00040704710B500F032F800BF60
:1024300064FBBE3E41000B0ED3F19E0208D950F45E
:1024400000034FEA032323FA02F048BF40427047DB
:1024500010B500F01EF800BF49922480002070479C
:102460006FF0004282EA200070470000B0FA80F36B
:1024700010FA03F2C3F19D030AD0D90501EB122033
:10248000530638BF704700F1010008BF20F001007B
:1024900070470EF1020E2EF0030E5EF8044B24423C
:1024A00004D44FEA4102B2F17F4F11D84FEA400302
:1024B000B3F17F4F0CD80ED14FEAD07C0CEB4C0C13
:1024C0000CF1020CB2F17F4F08BF4CEBD17C04E061
:1024D0004FF0080C01E04FEAD17C0CEB4C0324FADE
:1024E00003F404F00704B4F1040C06D20EEB840CE0
:1024F000BDE810404CF0010C6047DFE80CF0070825
:1025000002024FF00040A0F5800010BD08464200D6
:1025100018BFD2F1807288BF00F0004010BDFF21CB
:1025200041EAD050C005704790EA010F48BF81F0E2
:1025300000413FF524AF421A04D882F00042A0EBDC
:10254000020011444FEAD052A2EBD1534FF07F4C1E
:102550001CEA410F18BF9CEA026F4AD04FF0004CB2
:102560004CEA00204CEA012121FA03FCB0EB0C0CF0
:102570000FD412F0FE0F36D05FEA4C001DD50012CA
:1025800040EBC25038BF70471CF03F0F18BF704778
:102590000BE05FEA1C20A2F1010240EBC25038BF01
:1025A00070471CF07F0F18BF7047C3F1200399409C
:1025B00014BF401E20F0010070474FEA122380082C
:1025C00008BF7047B0FA80FCA2EB0C02CCF1280CDB
:1025D00060FA0CF093EA122F04BF00EBC250704770
:1025E0004FEAC3707047130A5FEADC1008BF7047F8
:1025F000F6E79CEA026F04D010EA5C0F08BF0020E7
:10260000704710B5FFF745FF40DFF63E81F0004010
:1026100070470000000000000000010203040607EC
:102620000809010202030405060708090A0B0C0D3C
:102630000E0F1010582600080000002010000000A7
:102640005001000868260008100000206007000004
:1026500070010008000000000100000010000000F0
:082660000024F400000000005A
:04000005080000ED02
:00000001FF
